:100000000C9462000C948A000C948A000C948A0070
:100010000C948A000C948A000C948A000C948A0038
:100020000C948A000C948A000C948A000C948A0028
:100030000C948A000C948A000C948A000C948A0018
:100040000C9498020C948A000C9408030C94E2021D
:100050000C948A000C948A000C948A000C948A00F8
:100060000C948A000C948A000000000024002700F1
:100070002A0000000000250028002B0000000000DE
:1000800023002600290004040404040404040202DA
:100090000202020203030303030301020408102007
:1000A0004080010204081020010204081020000012
:1000B0000008000201000003040700000000000027
:1000C0000000890411241FBECFEFD8E0DEBFCDBFF2
:1000D00011E0A0E0B1E0E0E1FAE002C005900D928D
:1000E000A831B107D9F721E0A8E1B1E001C01D9224
:1000F000A83CB207E1F710E0C2E6D0E004C02197C7
:10010000FE010E940005C136D107C9F70E943A03DB
:100110000C9406050C940000AF92BF92CF92DF9230
:10012000EF92FF920F931F93CF93DF936C017B01AC
:100130008B01040F151FEB015E01AE18BF08C0173D
:10014000D10759F06991D601ED91FC910190F081B0
:10015000E02DC6010995892B79F7C501DF91CF9173
:100160001F910F91FF90EF90DF90CF90BF90AF90D5
:100170000895FC01538D448D252F30E0842F90E0AD
:10018000821B930B541710F0CF9608950197089592
:10019000FC01918D828D981761F0A28DAE0FBF2F5B
:1001A000B11D5D968C91928D9F5F9F73928F90E0B1
:1001B00008958FEF9FEF0895FC01918D828D981720
:1001C00031F0828DE80FF11D858D90E008958FEF5D
:1001D0009FEF0895FC01918D228D892F90E0805C26
:1001E0009F4F821B91098F73992708958BE291E0AD
:1001F0000E94EA0021E0892B09F420E0822F089573
:1002000080E090E0892B29F00E94F60081110C9487
:1002100000000895FC01A48DA80FB92FB11DA35AA9
:10022000BF4F2C91848D90E001968F739927848F16
:10023000A689B7892C93A089B1898C918370806439
:100240008C93938D848D981306C00288F389E02DDA
:1002500080818F7D80830895EF92FF920F931F938B
:10026000CF93DF93EC0181E0888F9B8D8C8D981369
:100270001AC0E889F989808185FF15C09FB7F89475
:10028000EE89FF896083E889F989808183708064C1
:1002900080839FBF81E090E0DF91CF911F910F910C
:1002A000FF90EF900895F62E0B8D10E00F5F1F4F1B
:1002B0000F731127E02E8C8D8E110CC00FB607FC2A
:1002C000FACFE889F989808185FFF5CFCE010E94B8
:1002D0000A01F1CFEB8DEC0FFD2FF11DE35AFF4F1B
:1002E000F0829FB7F8940B8FEA89FB898081806246
:1002F000CFCFCF93DF93EC01888D8823B9F0AA8903
:10030000BB89E889F9898C9185FD03C0808186FDD0
:100310000DC00FB607FCF7CF8C9185FFF2CF80811F
:1003200085FFEDCFCE010E940A01E9CFDF91CF9189
:100330000895833081F028F4813099F08230A9F05B
:1003400008958730A9F08830C9F08430B1F48091E5
:1003500080008F7D03C0809180008F778093800024
:10036000089584B58F7784BD089584B58F7DFBCFC4
:100370008091B0008F778093B00008958091B00095
:100380008F7DF9CFCF93DF93282F30E0F901E2552D
:10039000FF4F8491F901E656FF4FD491F901EA57D6
:1003A000FF4FC491CC23A1F081110E949901EC2F41
:1003B000F0E0EE0FFF1FE458FF4FA591B491EC91D0
:1003C000ED2381E090E009F480E0DF91CF91089582
:1003D00080E090E0FACF1F93CF93DF93282F30E097
:1003E000F901E255FF4F8491F901E656FF4FD49190
:1003F000F901EA57FF4FC491CC23A9F0162F8111C0
:100400000E949901EC2FF0E0EE0FFF1FEE58FF4F16
:10041000A591B4918FB7F894EC91111108C0D095C3
:10042000DE23DC938FBFDF91CF911F910895DE2BE8
:10043000F8CFCF93DF9390E0FC01E656FF4F249175
:100440008A579F4FFC0184918823D1F090E0880F58
:10045000991FFC01E859FF4FA591B491FC01EE589A
:10046000FF4FC591D49161110EC09FB7F8948C9144
:10047000E22FE0958E238C932881E223E8839FBFAF
:10048000DF91CF9108958FB7F894EC91E22BEC9324
:100490008FBFF6CF8F929F92AF92BF920F931F9311
:1004A000CF93DF93CDB7DEB7A1970FB6F894DEBF39
:1004B0000FBECDBF19A2423008F44AE08E010F5D95
:1004C0001F4F842E912CB12CA12CA50194010E94C8
:1004D000CA04E62FB901CA01EA3044F5E05DD8014B
:1004E000EE938D01232B242B252B79F790E080E0D0
:1004F000109769F0FD0101900020E9F73197AF01F5
:100500004A1B5B0BBD018BE291E00E948C00A1961F
:100510000FB6F894DEBF0FBECDBFDF91CF911F9114
:100520000F91BF90AF909F908F900895E95CD7CFC7
:100530001F920F920FB60F9211242F933F938F9318
:100540009F93AF93BF938091270190912801A09131
:100550002901B0912A013091260123E0230F2D3784
:1005600058F50196A11DB11D209326018093270106
:1005700090932801A0932901B0932A018091220130
:1005800090912301A0912401B09125010196A11D14
:10059000B11D8093220190932301A0932401B09375
:1005A0002501BF91AF919F918F913F912F910F9016
:1005B0000FBE0F901F90189526E8230F0296A11DDD
:1005C000B11DD2CF1F920F920FB60F9211242F930D
:1005D0003F934F935F936F937F938F939F93AF93CB
:1005E000BF93EF93FF938BE291E00E940A01FF918A
:1005F000EF91BF91AF919F918F917F916F915F919B
:100600004F913F912F910F900FBE0F901F90189513
:100610001F920F920FB60F9211242F938F939F93D7
:10062000EF93FF93E0913B01F0913C018081E091D9
:100630004101F091420182FD1BC0908180914401F3
:100640008F5F8F7320914501821741F0E091440143
:10065000F0E0E55DFE4F958F80934401FF91EF91AF
:100660009F918F912F910F900FBE0F901F90189513
:100670008081F4CF789484B5826084BD84B5816034
:1006800084BD85B5826085BD85B5816085BD80915D
:100690006E00816080936E001092810080918100D5
:1006A00082608093810080918100816080938100CD
:1006B000809180008160809380008091B10084608F
:1006C0008093B1008091B00081608093B0008091F0
:1006D0007A00846080937A0080917A0082608093AF
:1006E0007A0080917A00816080937A0080917A000C
:1006F000806880937A001092C10061E08DE00E94D2
:10070000190260E082E00E94190260E083E00E942A
:10071000190260E084E00E94190260E085E00E9416
:100720001902E0913B01F0913C0182E08083E0916D
:100730003701F09138011082E0913901F0913A01CE
:100740008FEC808310924301E0913F01F0914001D2
:1007500086E08083E0913D01F0913E0180818061DF
:100760008083E0913D01F0913E018081886080832B
:10077000E0913D01F0913E01808180688083E091AD
:100780003D01F0913E0180818F7D8083CFEFD0E0ED
:1007900000E010E0AA24AA94B12C8091200190914D
:1007A00021010196BE010E94B6049093210180931D
:1007B000200182E00E94C2016C0190931F0180938E
:1007C0001E0183E00E94C20190931D0180931C01D1
:1007D00084E00E94C20190931B0180931A0185E07E
:1007E0000E94C20190931901809318010D2C000CF6
:1007F000EE08FF084AE0C701B601F7FE0DC06DE242
:100800008BE291E00E942C0166277727CB016C19BF
:100810007D098E099F094AE00E944A0242E050E0A9
:1008200065E171E08BE291E00E948C0080911E01F5
:1008300090911F01019709F05CC061E08DE00E947A
:10084000EB012091200130912101809101019091D3
:100850000201281739070CF046C08091000161E0C1
:10086000811142C060E08AE00E94EB0161E08BE010
:100870000E94EB0180911C0190911D01019769F488
:10088000809101019091020101968F3F910509F03D
:100890009CF5909302018093010180911A0190913F
:1008A0001B01019759F48091010190910201019778
:1008B00097FD27C090930201809301018091180158
:1008C00090911901019711F581E0809300010115C4
:1008D000110509F462CF0E94F600882309F45DCF68
:1008E0000E9400005ACF60E08AE00E94EB0160E0C5
:1008F000BECF60E08DE0BCCFB0920201A0920101BA
:10090000CCCF1092020110920101D8CF10920001B9
:10091000DECFEBE2F1E01382128288EE93E0A0E0FA
:10092000B0E084839583A683B78387E091E09183C9
:10093000808385EC90E09587848784EC90E09787AE
:10094000868780EC90E0918B808B81EC90E0938B9C
:10095000828B82EC90E0958B848B86EC90E0978B79
:10096000868B118E128E138E148E089597FB072E90
:1009700016F4009407D077FD09D00E94EC0407FC20
:1009800005D03EF4909581959F4F0895709561959F
:100990007F4F0895A1E21A2EAA1BBB1BFD010DC0BB
:1009A000AA1FBB1FEE1FFF1FA217B307E407F5071F
:1009B00020F0A21BB30BE40BF50B661F771F881FFB
:1009C000991F1A9469F760957095809590959B0191
:1009D000AC01BD01CF010895AA1BBB1B51E107C0AB
:1009E000AA1FBB1FA617B70710F0A61BB70B881FBF
:1009F000991F5A95A9F780959095BC01CD0108954E
:100A0000EE0FFF1F0590F491E02D0994F894FFCFAD
:100A100001FF00000000002C018C00B9007901EA00
:080A200000C800DC000D0A0013
:107E0000112484B714BE81FFF0D085E080938100F7
:107E100082E08093C00088E18093C10086E0809377
:107E2000C20080E18093C4008EE0C9D0259A86E02C
:107E300020E33CEF91E0309385002093840096BBD3
:107E4000B09BFECF1D9AA8958150A9F7CC24DD24C4
:107E500088248394B5E0AB2EA1E19A2EF3E0BF2EE7
:107E6000A2D0813461F49FD0082FAFD0023811F036
:107E7000013811F484E001C083E08DD089C08234E0
:107E800011F484E103C0853419F485E0A6D080C0E4
:107E9000853579F488D0E82EFF2485D0082F10E0AE
:107EA000102F00270E291F29000F111F8ED06801E7
:107EB0006FC0863521F484E090D080E0DECF843638
:107EC00009F040C070D06FD0082F6DD080E0C81688
:107ED00080E7D80618F4F601B7BEE895C0E0D1E017
:107EE00062D089930C17E1F7F0E0CF16F0E7DF06D8
:107EF00018F0F601B7BEE89568D007B600FCFDCFD4
:107F0000A601A0E0B1E02C9130E011968C91119780
:107F100090E0982F8827822B932B1296FA010C0160
:107F200087BEE89511244E5F5F4FF1E0A038BF0790
:107F300051F7F601A7BEE89507B600FCFDCF97BE46
:107F4000E89526C08437B1F42ED02DD0F82E2BD052
:107F50003CD0F601EF2C8F010F5F1F4F84911BD097
:107F6000EA94F801C1F70894C11CD11CFA94CF0C13
:107F7000D11C0EC0853739F428D08EE10CD085E9AC
:107F80000AD08FE07ACF813511F488E018D01DD067
:107F900080E101D065CF982F8091C00085FFFCCF94
:107FA0009093C60008958091C00087FFFCCF809118
:107FB000C00084FD01C0A8958091C6000895E0E648
:107FC000F0E098E1908380830895EDDF803219F02E
:107FD00088E0F5DFFFCF84E1DECF1F93182FE3DFCA
:107FE0001150E9F7F2DF1F91089580E0E8DFEE27F6
:047FF000FF270994CA
:027FFE00040479
:0400000300007E007B
:00000001FF
