:100000000C9462000C948A000C948A000C948A0070
:100010000C948A000C948A000C948A000C948A0038
:100020000C948A000C948A000C948A000C948A0028
:100030000C948A000C948A000C948A000C948A0018
:100040000C9405040C948A000C94D3030C94AD0317
:100050000C948A000C948A000C948A000C948A00F8
:100060000C948A000C948A000000000024002700F1
:100070002A0000000000250028002B0000000000DE
:1000800023002600290004040404040404040202DA
:100090000202020203030303030301020408102007
:1000A0004080010204081020010204081020000012
:1000B0000008000201000003040700000000000027
:1000C00000004F0411241FBECFEFD8E0DEBFCDBF2C
:1000D00011E0A0E0B1E0E0EEFDE002C005900D927D
:1000E000A832B107D9F721E0A8E2B1E001C01D9222
:1000F000AE3EB207E1F710E0C2E6D0E004C02197BF
:10010000FE010E94B206C136D107C9F70E94B404AD
:100110000C94EE060C940000AF92BF92CF92DF9247
:10012000EF92FF920F931F93CF93DF936C017B01AC
:100130008B01040F151FEB015E01AE18BF08C0173D
:10014000D10759F06991D601ED91FC910190F081B0
:10015000E02DC6010995892B79F7C501DF91CF9173
:100160001F910F91FF90EF90DF90CF90BF90AF90D5
:100170000895FC01538D448D252F30E0842F90E0AD
:10018000821B930B541710F0CF9608950197089592
:10019000FC01918D828D981761F0A28DAE0FBF2F5B
:1001A000B11D5D968C91928D9F5F9F73928F90E0B1
:1001B00008958FEF9FEF0895FC01918D828D981720
:1001C00031F0828DE80FF11D858D90E008958FEF5D
:1001D0009FEF0895FC01918D228D892F90E0805C26
:1001E0009F4F821B91098F739927089587E391E0B0
:1001F0000E94EA0021E0892B09F420E0822F089573
:1002000080E090E0892B29F00E94F60081110C9487
:1002100000000895FC01A48DA80FB92FB11DA35AA9
:10022000BF4F2C91848D90E001968F739927848F16
:10023000A689B7892C93A089B1898C918370806439
:100240008C93938D848D981306C00288F389E02DDA
:1002500080818F7D80830895EF92FF920F931F938B
:10026000CF93DF93EC0181E0888F9B8D8C8D981369
:100270001AC0E889F989808185FF15C09FB7F89475
:10028000EE89FF896083E889F989808183708064C1
:1002900080839FBF81E090E0DF91CF911F910F910C
:1002A000FF90EF900895F62E0B8D10E00F5F1F4F1B
:1002B0000F731127E02E8C8D8E110CC00FB607FC2A
:1002C000FACFE889F989808185FFF5CFCE010E94B8
:1002D0000A01F1CFEB8DEC0FFD2FF11DE35AFF4F1B
:1002E000F0829FB7F8940B8FEA89FB898081806246
:1002F000CFCFCF93DF93EC01888D8823B9F0AA8903
:10030000BB89E889F9898C9185FD03C0808186FDD0
:100310000DC00FB607FCF7CF8C9185FFF2CF80811F
:1003200085FFEDCFCE010E940A01E9CFDF91CF9189
:100330000895833081F028F4813099F08230A9F05B
:1003400008958730A9F08830C9F08430B1F48091E5
:1003500080008F7D03C0809180008F778093800024
:10036000089584B58F7784BD089584B58F7DFBCFC4
:100370008091B0008F778093B00008958091B00095
:100380008F7DF9CFCF93DF93282F30E0F901E2552D
:10039000FF4F8491F901E656FF4FD491F901EA57D6
:1003A000FF4FC491CC23A1F081110E949901EC2F41
:1003B000F0E0EE0FFF1FE458FF4FA591B491EC91D0
:1003C000ED2381E090E009F480E0DF91CF91089582
:1003D00080E090E0FACF1F93CF93DF93282F30E097
:1003E000F901E255FF4F8491F901E656FF4FD49190
:1003F000F901EA57FF4FC491CC23A9F0162F8111C0
:100400000E949901EC2FF0E0EE0FFF1FEE58FF4F16
:10041000A591B4918FB7F894EC91111108C0D095C3
:10042000DE23DC938FBFDF91CF911F910895DE2BE8
:10043000F8CFCF93DF93EC018091DC019091DD0147
:10044000029749F4C130D10509F43BC06CF560E076
:10045000209709F437C08091DC019091DD01049769
:1004600049F4C130D10509F45CC00CF037C02097C5
:1004700009F442C08091DC019091DD01059709F0FB
:10048000E5C0CA30D10508F0E1C0FE01E65BFD4FD2
:100490000C94B206A902B502C602DC02F702F90208
:1004A00000030C031D032403C230D105A9F060E052
:1004B000C330D10581F68091E0010E94EB0160E03C
:1004C00006C061E08091E0010E94EB0161E0809153
:1004D000E2010E94EB01BFCF61E0EDCFC230D10558
:1004E00039F1C330D10509F0C5CF61E08091E00159
:1004F0000E94EB0160E022C061E08091E0010E9477
:10050000EB0160E08091E2010E94EB0161E08091EB
:10051000E4010E94EB0160E08091E6010E94EB01A2
:10052000A9CF60E08091E0010E94EB0161E0EACF99
:1005300060E08091E0010E94EB0161E08091E201C6
:100540000E94EB0160E08091E4010E94EB0161E018
:10055000E3CF60E08091E0010E94EB0161E08091D7
:10056000E2010E94EB0161E00BC060E08091E001DC
:100570000E94EB0161E08091E2010E94EB0160E0EA
:100580008091E4010E94EB0160E010C060E0809186
:10059000E0010E94EB0161E08091E2010E94EB0129
:1005A00060E08091E4010E94EB0161E08091E6014E
:1005B0000E94EB0161E015C060E08091E0010E94C3
:1005C000EB0161E08091E2010E94EB0160E080912B
:1005D000E4010E94EB0161E08091E6010E94EB01E1
:1005E00060E08091E801DF91CF910C94EB0161E034
:1005F000E4CF61E08091E0010E94EB0160E0E2CF96
:1006000061E08091E0010E94EB0160E08091E201F5
:100610000E94EB0161E0DBCF61E08091E0010E948C
:10062000EB0160E08091E2010E94EB0161E08091CA
:10063000E4010E94EB0160E0CFCF61E08091E00136
:100640000E94EB0160E08BCF60E0F8CFDF91CF91AB
:100650000895CF93DF9390E0FC01E656FF4F24917D
:100660008A579F4FFC0184918823D1F090E0880F36
:10067000991FFC01E859FF4FA591B491FC01EE5878
:10068000FF4FC591D49161110EC09FB7F8948C9122
:10069000E22FE0958E238C932881E223E8839FBF8D
:1006A000DF91CF9108958FB7F894EC91E22BEC9302
:1006B0008FBFF6CFFC0101900020E9F73197AF0121
:1006C000481B590BBC0187E391E00C948C00CF933D
:1006D000DF930E945A03EC0185E191E00E945A03E6
:1006E0008C0F9D1FDF91CF9108950F931F93CF9390
:1006F000DF93CDB7DEB7A1970FB6F894DEBF0FBE7C
:10070000CDBF8F3F980701F56DE287E391E00E942E
:100710002C018C0119A281E388A3CE0180960E944E
:100720005A03080F191F85E191E00E945A03800FB8
:10073000911FA1960FB6F894DEBF0FBECDBFDF911B
:10074000CF911F910F91089519A2805D88A3CE01CA
:1007500080960E945A038C01E6CF1F920F920FB62B
:100760000F9211242F933F934F935F936F937F9337
:100770008F939F93AF93BF93EF93FF9387E391E0A2
:100780000E940A01FF91EF91BF91AF919F918F91CC
:100790007F916F915F914F913F912F910F900FBE7D
:1007A0000F901F9018951F920F920FB60F92112461
:1007B0002F938F939F93EF93FF93E0914701F091D5
:1007C00048018081E0914D01F0914E0182FD1BC0F6
:1007D0009081809150018F5F8F732091510182171A
:1007E00041F0E0915001F0E0E95CFE4F958F80937D
:1007F0005001FF91EF919F918F912F910F900FBE1C
:100800000F901F9018958081F4CF1F920F920FB612
:100810000F9211242F933F938F939F93AF93BF9386
:100820008091290190912A01A0912B01B0912C0176
:100830003091280123E0230F2D3758F50196A11D93
:10084000B11D209328018093290190932A01A09340
:100850002B01B0932C0180912D0190912E01A0913C
:100860002F01B09130010196A11DB11D80932D0182
:1008700090932E01A0932F01B0933001BF91AF91BF
:100880009F918F913F912F910F900FBE0F901F90CE
:10089000189526E8230F0296A11DB11DD2CFCF9344
:1008A000DF93E7E3F1E01382128288EE93E0A0E0A9
:1008B000B0E084839583A683B78387E091E091833A
:1008C000808385EC90E09587848784EC90E097871F
:1008D000868780EC90E0918B808B81EC90E0938B0D
:1008E000828B82EC90E0958B848B86EC90E0978BEA
:1008F000868B118E128E138E148EC4EDD1E01B8662
:100900001A86198218821E8A1F8A188E198E8EE600
:1009100090E09F838E8388E090E09D878C8789E0BC
:1009200090E09F878E878AE090E0998B888B8BE0A0
:1009300090E09B8B8A8B61E088E00E94290361E054
:100940008E850E94290361E088890E94290361E065
:100950008A890E9429031D8A1C8A84E090E0998775
:100960008887DF91CF910895789484B5826084BDA3
:1009700084B5816084BD85B5826085BD85B58160A3
:1009800085BD80916E00816080936E001092810021
:1009900080918100826080938100809181008160DC
:1009A000809381008091800081608093800080919D
:1009B000B10084608093B1008091B0008160809329
:1009C000B00080917A00846080937A0080917A00F0
:1009D000826080937A0080917A00816080937A00AF
:1009E00080917A00806880937A001092C10060E064
:1009F00082E00E94290360E083E00E94290360E016
:100A000084E00E942903E0914701F091480182E0CF
:100A10008083E0914301F09144011082E09145010F
:100A2000F09146018FEC808310924F01E0914B01D1
:100A3000F0914C0186E08083E0914901F0914A01F8
:100A4000808180618083E0914901F0914A01808139
:100A500088608083E0914901F0914A01808180683B
:100A60008083E0914901F0914A0180818F7D8083EC
:100A7000812C67E8962E63E9A62E63E0B62E74E615
:100A8000472E512C612C712CE4E0EE2EF12C222407
:100A90002A94322C50E0C52E50E0D52E80910201D0
:100AA000882309F4C3C02091DA013091DB01032EC1
:100AB000000C440B550BC501B4010E949306CA01FA
:100AC000B901A30192010E9493062093D6013093AD
:100AD000D7014093D8015093D901809100019091A2
:100AE0000101EC0197FF04C0CC27DD27C81BD90BFF
:100AF000181619060CF07EC081E090E09093D501A5
:100B00008093D401209709F491C03FB7F894809165
:100B10002D0190912E01A0912F01B091300126B5A9
:100B2000A89B05C02F3F19F00196A11DB11D3FBF25
:100B3000BA2FA92F982F8827820F911DA11DB11DB3
:100B400042E0880F991FAA1FBB1F4A95D1F7409119
:100B5000EA015091EB016091EC017091ED018C0183
:100B60009D01041B150B260B370B4091D6015091AC
:100B7000D7016091D8017091D90104171507260794
:100B8000370708F4BFCF8093EA019093EB01A0935D
:100B9000EC01B093ED018091DE019091DF01209195
:100BA000D4013091D5012130310561F50196909342
:100BB000DF018093DE012091DA013091DB018217A1
:100BC000930721F41092DF011092DE0121978091AA
:100BD000DE019091DF012091DC013091DD016AE0BE
:100BE00070E02530310509F0B7010E947F060E94B0
:100BF000190288CF892B09F485CF1092D501109264
:100C0000D40180CF892B41F48091DA019091DB01EE
:100C10009093DF018093DE018091DE019091DF01EE
:100C200001979093DF018093DE01D0CF82E00E9494
:100C3000C201EC01909336018093350183E00E945C
:100C4000C201909334018093330184E00E94C20179
:100C50009093320180933101CD2BB1F488E191E082
:100C60000E94670382E00E94C201892BD9F381E0D0
:100C700090E0909301018093000191E09093020134
:100C800081E090E00E9475038091330190913401DE
:100C9000892BA1F488E191E00E94670383E00E9420
:100CA000C201892BD9F3309201012092000181E029
:100CB000809302018FEF9FEF0E94750380913101B5
:100CC00090913201892B79F482E291E00E946703CE
:100CD00084E00E94C201892BD9F31092020190E0B6
:100CE00080E00E947503C114D10409F4D7CE0E949C
:100CF000F600882309F4D2CE0E940000CBCE97FBE9
:100D0000072E16F4009407D077FD09D00E94B8068C
:100D100007FC05D03EF4909581959F4F08957095FE
:100D200061957F4F0895052E97FB1EF400940E9455
:100D3000AA0657FD07D00E94CC0607FC03D04EF44C
:100D40000C94AA0650954095309521953F4F4F4FF2
:100D50005F4F089590958095709561957F4F8F4F67
:100D60009F4F0895EE0FFF1F0590F491E02D099419
:100D7000AA1BBB1B51E107C0AA1FBB1FA617B707C1
:100D800010F0A61BB70B881F991F5A95A9F78095DD
:100D90009095BC01CD010895A1E21A2EAA1BBB1BA0
:100DA000FD010DC0AA1FBB1FEE1FFF1FA217B30737
:100DB000E407F50720F0A21BB30BE40BF50B661F4D
:100DC000771F881F991F1A9469F760957095809511
:100DD00090959B01AC01BD01CF010895F894FFCF20
:100DE000FFFF01000000002C018C00B9007901EA2E
:100DF00000C800DC000D0A00436C6F636B776973F9
:080E0000650053746F700000DF
:00000001FF
