:100000000C9462000C948A000C948A000C948A0070
:100010000C948A000C948A000C948A000C948A0038
:100020000C948A000C948A000C948A000C94DA03D5
:100030000C948A000C948A000C948A000C948A0018
:100040000C9438030C948A000C94A8030C9482033B
:100050000C948A000C948A000C948A000C948A00F8
:100060000C948A000C948A000000000024002700F1
:100070002A0000000000250028002B0000000000DE
:1000800023002600290004040404040404040202DA
:100090000202020203030303030301020408102007
:1000A0004080010204081020010204081020000012
:1000B0000008000201000003040700000000000027
:1000C0000000960411241FBECFEFD8E0DEBFCDBFE5
:1000D00011E0A0E0B1E0E0EBFDE002C005900D9280
:1000E000AE31B107D9F721E0AEE1B1E001C01D9218
:1000F000A33FB207E1F710E0C2E6D0E004C02197C9
:10010000FE010E94D006C136D107C9F70E94F30450
:100110000C94D6060C940000CF92DF92EF92FF92DF
:10012000DC01A03282E0B807D4F5A53BB10514F09C
:10013000A4EBB0E04091F10128E830E0241B310944
:1001400047FD3395220F331F220F331F6901330FF1
:10015000EE08FF084091F20128E532E0241B310946
:1001600047FD3395220F331F220F331F032E000C40
:10017000440B550B2C193D094E095F09B7FF02C00E
:10018000B0E0A0E00E948B0624EB30E040E050E0BD
:100190000E946106C20ED31EE41EF51ED601E09138
:1001A000F001EC3080F52091F10188E890E0821BAD
:1001B000910927FD9395880F991F880F991FA817FC
:1001C000B90784F02091F20188E592E0821B910941
:1001D00027FD9395880F991F880F991FA817B907B6
:1001E0000CF4CD010297880F991F4FB7F8942E2F6A
:1001F00030E0F901EE0FFF1FE20FF31FE553FE4F52
:10020000928381834FBFFF90EF90DF90CF9008954E
:10021000AF92BF92CF92DF92EF92FF920F931F9314
:10022000CF93DF936C017B018B01040F151FEB0152
:100230005E01AE18BF08C017D10759F06991D60109
:10024000ED91FC910190F081E02DC6010995892B7B
:1002500079F7C501DF91CF911F910F91FF90EF903A
:10026000DF90CF90BF90AF900895FC01538D448DE7
:10027000252F30E0842F90E0821B930B541710F051
:10028000CF96089501970895FC01918D828D98175E
:1002900061F0A28DAE0FBF2FB11D5D968C91928D36
:1002A0009F5F9F73928F90E008958FEF9FEF089567
:1002B000FC01918D828D981731F0828DE80FF11D30
:1002C000858D90E008958FEF9FEF0895FC01918D4B
:1002D000228D892F90E0805C9F4F821B91098F7344
:1002E000992708958EE291E00E94660121E0892B12
:1002F00009F420E0822F089580E090E0892B29F016
:100300000E94720181110C9400000895FC01A48DDB
:10031000A80FB92FB11DA35ABF4F2C91848D90E027
:1003200001968F739927848FA689B7892C93A0890A
:10033000B1898C91837080648C93938D848D981394
:1003400006C00288F389E02D80818F7D8083089527
:10035000EF92FF920F931F93CF93DF93EC0181E015
:10036000888F9B8D8C8D98131AC0E889F9898081BC
:1003700085FF15C09FB7F894EE89FF896083E889EF
:10038000F98980818370806480839FBF81E090E0E1
:10039000DF91CF911F910F91FF90EF900895F62E6E
:1003A0000B8D10E00F5F1F4F0F731127E02E8C8D08
:1003B0008E110CC00FB607FCFACFE889F98980814D
:1003C00085FFF5CFCE010E948601F1CFEB8DEC0FBA
:1003D000FD2FF11DE35AFF4FF0829FB7F8940B8F6A
:1003E000EA89FB8980818062CFCFCF93DF93EC01D4
:1003F000888D8823B9F0AA89BB89E889F9898C910D
:1004000085FD03C0808186FD0DC00FB607FCF7CFC8
:100410008C9185FFF2CF808185FFEDCFCE010E94C8
:100420008601E9CFDF91CF910895833081F028F4E0
:10043000813099F08230A9F008958730A9F0883092
:10044000C9F08430B1F4809180008F7D03C0809129
:1004500080008F7780938000089584B58F7784BD66
:10046000089584B58F7DFBCF8091B0008F77809306
:10047000B00008958091B0008F7DF9CFCF93DF93C6
:10048000282F30E0F901E255FF4F8491F901E6563B
:10049000FF4FD491F901EA57FF4FC491CC23A1F04B
:1004A00081110E941502EC2FF0E0EE0FFF1FE458BF
:1004B000FF4FA591B491EC91ED2381E090E009F418
:1004C00080E0DF91CF91089580E090E0FACF1F9314
:1004D000CF93DF93282F30E0F901E255FF4F84914D
:1004E000F901E656FF4FD491F901EA57FF4FC49145
:1004F000CC23A9F0162F81110E941502EC2FF0E0F9
:10050000EE0FFF1FEE58FF4FA591B4918FB7F894EF
:10051000EC91111108C0D095DE23DC938FBFDF91E1
:10052000CF911F910895DE2BF8CFCF93DF9390E00A
:10053000FC01E656FF4F24918A579F4FFC0184919E
:100540008823D1F090E0880F991FFC01E859FF4FF4
:10055000A591B491FC01EE58FF4FC591D491611162
:100560000EC09FB7F8948C91E22FE0958E238C9368
:100570002881E223E8839FBFDF91CF9108958FB751
:10058000F894EC91E22BEC938FBFF6CFFC01019035
:100590000020E9F73197AF01481B590BBC018EE2EF
:1005A00091E00C9408018F929F92AF92BF920F93AB
:1005B0001F93CF93DF93CDB7DEB7A1970FB6F89413
:1005C000DEBF0FBECDBF19A2423008F44AE08E0153
:1005D0000F5D1F4F842E912CB12CA12CA5019401ED
:1005E0000E949306E62FB901CA01EA30F4F4E05DF7
:1005F000D801EE938D01232B242B252B79F790E046
:1006000080E0109719F0CD010E94C602A1960FB6A6
:10061000F894DEBF0FBECDBFDF91CF911F910F9138
:10062000BF90AF909F908F900895E95CE1CFCF92FB
:10063000DF92EF92FF92CF93DF936B017C016DE22B
:100640008EE291E00E94A801EC0166277727CB019A
:100650006C197D098E099F094AE00E94D3028C0F14
:100660009D1FDF91CF91FF90EF90DF90CF90089585
:100670001F920F920FB60F9211242F933F938F93D7
:100680009F93AF93BF9380912A0190912B01A091EA
:100690002C01B0912D013091290123E0230F2D373A
:1006A00058F50196A11DB11D2093290180932A01BF
:1006B00090932B01A0932C01B0932D0180912501E3
:1006C00090912601A0912701B09128010196A11DCA
:1006D000B11D8093250190932601A0932701B0932B
:1006E0002801BF91AF919F918F913F912F910F90D2
:1006F0000FBE0F901F90189526E8230F0296A11D9C
:10070000B11DD2CF1F920F920FB60F9211242F93CB
:100710003F934F935F936F937F938F939F93AF9389
:10072000BF93EF93FF938EE291E00E948601FF91C9
:10073000EF91BF91AF919F918F917F916F915F9159
:100740004F913F912F910F900FBE0F901F901895D2
:100750001F920F920FB60F9211242F938F939F9396
:10076000EF93FF93E0913E01F0913F018081E09192
:100770004401F091450182FD1BC0908180914701A9
:100780008F5F8F7320914801821741F0E0914701FC
:10079000F0E0E25DFE4F958F80934701FF91EF916E
:1007A0009F918F912F910F900FBE0F901F901895D2
:1007B0008081F4CF1F920F920FB60F9211242F93C6
:1007C0003F934F935F936F937F938F939F93AF93D9
:1007D000BF93CF93DF93EF93FF9380911E01C0915E
:1007E000EF01D0E087FF24C01092850010928400B2
:1007F00080911E018F5F80931E0180911E01082E43
:10080000000C990B8C179D0724F480911E018C30ED
:10081000C4F18091840090918500049680349C49B5
:1008200008F47AC08091840090918500049676C087
:1008300080911E01082E000C990B8C179D07C4F6A1
:10084000E0911E018E2FEE0F990BFC01EE0FFF1FA2
:10085000E80FF91FE553FE4F808186FFC9CFE09175
:100860001E018E2FEE0F990BFC01EE0FFF1FE80FFC
:10087000F91FE553FE4F808160E08F730E9467028D
:10088000B7CF2091840030918500E0911E018E2F1A
:10089000EE0F990BFC01EE0FFF1FE80FF91FE55358
:1008A000FE4F81819281820F931F909389008093E4
:1008B0008800E0911E018E2FEE0F990BFC01EE0FC8
:1008C000FF1FE80FF91FE553FE4F808186FF11C01F
:1008D000E0911E018E2FEE0F990BFC01EE0FFF1F12
:1008E000E80FF91FE553FE4F808161E08F730E948E
:1008F0006702FF91EF91DF91CF91BF91AF919F91EF
:100900008F917F916F915F914F913F912F910F90B8
:100910000FBE0F901F90189580E49CE9909389007A
:10092000809388008FEF80931E01E3CF10923101F6
:100930001092300188EE93E0A0E0B0E080933201A5
:1009400090933301A0933401B093350184E091E09A
:1009500090932F0180932E0185EC90E090933B01C2
:1009600080933A0184EC90E090933D0180933C01A8
:1009700080EC90E090933F0180933E0181EC90E009
:10098000909341018093400182EC90E09093430169
:100990008093420186EC90E090934501809344015E
:1009A00010924701109248011092490110924A0199
:1009B0008091EF018C3098F491E0980F9093EF01C3
:1009C0008093F00190E0FC01EE0FFF1FE80FF91F8C
:1009D000E553FE4F88EB9BE09283818308958FEF70
:1009E0008093F0010895789484B5826084BD84B5C5
:1009F000816084BD85B5826085BD85B5816085BD1A
:100A000080916E00816080936E00109281008091D1
:100A10008100826080938100809181008160809359
:100A20008100809180008160809380008091B1007E
:100A300084608093B1008091B00081608093B000A9
:100A400080917A00846080937A0080917A0082603D
:100A500080937A0080917A00816080937A008091FF
:100A60007A00806880937A001092C1008091F00132
:100A70008C3008F053C061E08AE00E9495028091BA
:100A8000F001282F30E0F901EE0FFF1FE20FF31FF6
:100A9000E553FE4F9081907C9A6090839EE89093FE
:100AA000F10194E69093F2012CE0622F0E94C406BB
:100AB000829FB001112430E020E0AB01420F531FB0
:100AC000FA01EE0FFF1FE40FF51FE553FE4F908173
:100AD00096FD16C02F5F3F4F2C30310571F7811105
:100AE0000FC01092800082E08093810010928500F8
:100AF00010928400B19A80916F00826080936F00A1
:100B0000E091F0018E2F90E0FC01EE0FFF1FE80F47
:100B1000F91FE553FE4F80818064808361E08DE0A2
:100B20000E94950260E082E00E94950260E083E00E
:100B30000E949502E0913E01F0913F0182E08083A6
:100B4000E0913A01F0913B011082E0913C01F0917B
:100B50003D018FEC808310924601E0914201F091BB
:100B6000430186E08083E0914001F0914101808162
:100B700080618083E0914001F09141018081886033
:100B80008083E0914001F091410180818068808301
:100B9000E0914001F091410180818F7D808300E0F0
:100BA00010E084EBE82EF12C82E00E943E02EC0182
:100BB000909324018093230183E00E943E0290934E
:100BC000220180932101CD2B69F582E191E00E9401
:100BD000C60286E191E00E94C60282E00E943E02C7
:100BE000892BD9F380911F01909120010A96853BB2
:100BF00091050CF054C09093200180931F01C09187
:100C00001F01D0912001CE010E948C00BE01DD0F9A
:100C1000880B990B97FF48C00E94170386E191E06B
:100C20000E94C6028091210190912201892B59F5E1
:100C300089E191E00E94C60286E191E00E94C6022D
:100C400083E00E943E02892BD9F380911F0190918D
:100C500020010A9797FD2CC09093200180931F01DB
:100C6000C0911F01D0912001CE010E948C00BE01D5
:100C7000DD0F880B990B97FF20C00E94170386E1B8
:100C800091E00E94C6020115110509F48DCF0E9462
:100C90007201882309F488CF0E94000085CFF0926A
:100CA0002001E0921F01ABCF4AE00E94D302B6CFF1
:100CB0001092200110921F01D3CF4AE00E94D3026C
:100CC000DECF052E97FB1EF400940E94780657FD98
:100CD00007D00E94930607FC03D04EF40C947806CC
:100CE00050954095309521953F4F4F4F5F4F089558
:100CF00090958095709561957F4F8F4F9F4F089588
:100D00000E94B506A59F900DB49F900DA49F800DE5
:100D1000911D11240895B7FF0C9480060E9480064F
:100D2000821B930B0895A1E21A2EAA1BBB1BFD0187
:100D30000DC0AA1FBB1FEE1FFF1FA217B307E407BA
:100D4000F50720F0A21BB30BE40BF50B661F771F12
:100D5000881F991F1A9469F76095709580959095F2
:100D60009B01AC01BD01CF010895A29FB001B39FCB
:100D7000C001A39F700D811D1124911DB29F700DA4
:100D8000811D1124911D0895991B79E004C0991FBC
:100D9000961708F0961B881F7A95C9F780950895D5
:100DA000EE0FFF1F0590F491E02D0994F894FFCF0A
:100DB00000000000A80108013501F50166014401A9
:0E0DC0005801696E63000D0A0064656300004F
:107E0000112484B714BE81FFF0D085E080938100F7
:107E100082E08093C00088E18093C10086E0809377
:107E2000C20080E18093C4008EE0C9D0259A86E02C
:107E300020E33CEF91E0309385002093840096BBD3
:107E4000B09BFECF1D9AA8958150A9F7CC24DD24C4
:107E500088248394B5E0AB2EA1E19A2EF3E0BF2EE7
:107E6000A2D0813461F49FD0082FAFD0023811F036
:107E7000013811F484E001C083E08DD089C08234E0
:107E800011F484E103C0853419F485E0A6D080C0E4
:107E9000853579F488D0E82EFF2485D0082F10E0AE
:107EA000102F00270E291F29000F111F8ED06801E7
:107EB0006FC0863521F484E090D080E0DECF843638
:107EC00009F040C070D06FD0082F6DD080E0C81688
:107ED00080E7D80618F4F601B7BEE895C0E0D1E017
:107EE00062D089930C17E1F7F0E0CF16F0E7DF06D8
:107EF00018F0F601B7BEE89568D007B600FCFDCFD4
:107F0000A601A0E0B1E02C9130E011968C91119780
:107F100090E0982F8827822B932B1296FA010C0160
:107F200087BEE89511244E5F5F4FF1E0A038BF0790
:107F300051F7F601A7BEE89507B600FCFDCF97BE46
:107F4000E89526C08437B1F42ED02DD0F82E2BD052
:107F50003CD0F601EF2C8F010F5F1F4F84911BD097
:107F6000EA94F801C1F70894C11CD11CFA94CF0C13
:107F7000D11C0EC0853739F428D08EE10CD085E9AC
:107F80000AD08FE07ACF813511F488E018D01DD067
:107F900080E101D065CF982F8091C00085FFFCCF94
:107FA0009093C60008958091C00087FFFCCF809118
:107FB000C00084FD01C0A8958091C6000895E0E648
:107FC000F0E098E1908380830895EDDF803219F02E
:107FD00088E0F5DFFFCF84E1DECF1F93182FE3DFCA
:107FE0001150E9F7F2DF1F91089580E0E8DFEE27F6
:047FF000FF270994CA
:027FFE00040479
:0400000300007E007B
:00000001FF
